{
  "contractName": "SolnSquareVerifier",
  "abi": [
    {
      "anonymous": false,
      "inputs": [
        {
          "indexed": true,
          "internalType": "address",
          "name": "owner",
          "type": "address"
        },
        {
          "indexed": true,
          "internalType": "address",
          "name": "approved",
          "type": "address"
        },
        {
          "indexed": true,
          "internalType": "uint256",
          "name": "tokenId",
          "type": "uint256"
        }
      ],
      "name": "Approval",
      "type": "event"
    },
    {
      "anonymous": false,
      "inputs": [
        {
          "indexed": true,
          "internalType": "address",
          "name": "owner",
          "type": "address"
        },
        {
          "indexed": true,
          "internalType": "address",
          "name": "operator",
          "type": "address"
        },
        {
          "indexed": false,
          "internalType": "bool",
          "name": "approved",
          "type": "bool"
        }
      ],
      "name": "ApprovalForAll",
      "type": "event"
    },
    {
      "anonymous": false,
      "inputs": [
        {
          "indexed": false,
          "internalType": "address",
          "name": "oldOwner",
          "type": "address"
        },
        {
          "indexed": false,
          "internalType": "address",
          "name": "newOwner",
          "type": "address"
        }
      ],
      "name": "OwnershipTransferred",
      "type": "event"
    },
    {
      "anonymous": false,
      "inputs": [
        {
          "indexed": false,
          "internalType": "address",
          "name": "pauser",
          "type": "address"
        }
      ],
      "name": "Paused",
      "type": "event"
    },
    {
      "anonymous": false,
      "inputs": [
        {
          "indexed": false,
          "internalType": "bytes32",
          "name": "key",
          "type": "bytes32"
        },
        {
          "indexed": false,
          "internalType": "address",
          "name": "addr",
          "type": "address"
        },
        {
          "indexed": false,
          "internalType": "uint256",
          "name": "tokenId",
          "type": "uint256"
        }
      ],
      "name": "SolutionAdded",
      "type": "event"
    },
    {
      "anonymous": false,
      "inputs": [
        {
          "indexed": true,
          "internalType": "address",
          "name": "from",
          "type": "address"
        },
        {
          "indexed": true,
          "internalType": "address",
          "name": "to",
          "type": "address"
        },
        {
          "indexed": true,
          "internalType": "uint256",
          "name": "tokenId",
          "type": "uint256"
        }
      ],
      "name": "Transfer",
      "type": "event"
    },
    {
      "anonymous": false,
      "inputs": [
        {
          "indexed": false,
          "internalType": "address",
          "name": "unpauser",
          "type": "address"
        }
      ],
      "name": "Unpaused",
      "type": "event"
    },
    {
      "anonymous": false,
      "inputs": [
        {
          "indexed": false,
          "internalType": "string",
          "name": "s",
          "type": "string"
        }
      ],
      "name": "Verified",
      "type": "event"
    },
    {
      "constant": false,
      "inputs": [
        {
          "internalType": "bytes32",
          "name": "_myid",
          "type": "bytes32"
        },
        {
          "internalType": "string",
          "name": "_result",
          "type": "string"
        }
      ],
      "name": "__callback",
      "outputs": [],
      "payable": false,
      "stateMutability": "nonpayable",
      "type": "function"
    },
    {
      "constant": false,
      "inputs": [
        {
          "internalType": "bytes32",
          "name": "_myid",
          "type": "bytes32"
        },
        {
          "internalType": "string",
          "name": "_result",
          "type": "string"
        },
        {
          "internalType": "bytes",
          "name": "_proof",
          "type": "bytes"
        }
      ],
      "name": "__callback",
      "outputs": [],
      "payable": false,
      "stateMutability": "nonpayable",
      "type": "function"
    },
    {
      "constant": false,
      "inputs": [
        {
          "internalType": "address",
          "name": "to",
          "type": "address"
        },
        {
          "internalType": "uint256",
          "name": "tokenId",
          "type": "uint256"
        }
      ],
      "name": "approve",
      "outputs": [],
      "payable": false,
      "stateMutability": "nonpayable",
      "type": "function"
    },
    {
      "constant": true,
      "inputs": [
        {
          "internalType": "address",
          "name": "owner",
          "type": "address"
        }
      ],
      "name": "balanceOf",
      "outputs": [
        {
          "internalType": "uint256",
          "name": "",
          "type": "uint256"
        }
      ],
      "payable": false,
      "stateMutability": "view",
      "type": "function"
    },
    {
      "constant": true,
      "inputs": [
        {
          "internalType": "uint256",
          "name": "tokenId",
          "type": "uint256"
        }
      ],
      "name": "getApproved",
      "outputs": [
        {
          "internalType": "address",
          "name": "",
          "type": "address"
        }
      ],
      "payable": false,
      "stateMutability": "view",
      "type": "function"
    },
    {
      "constant": true,
      "inputs": [],
      "name": "getBaseTokenURI",
      "outputs": [
        {
          "internalType": "string",
          "name": "",
          "type": "string"
        }
      ],
      "payable": false,
      "stateMutability": "view",
      "type": "function"
    },
    {
      "constant": true,
      "inputs": [],
      "name": "getName",
      "outputs": [
        {
          "internalType": "string",
          "name": "",
          "type": "string"
        }
      ],
      "payable": false,
      "stateMutability": "view",
      "type": "function"
    },
    {
      "constant": true,
      "inputs": [],
      "name": "getOwner",
      "outputs": [
        {
          "internalType": "address",
          "name": "",
          "type": "address"
        }
      ],
      "payable": false,
      "stateMutability": "view",
      "type": "function"
    },
    {
      "constant": true,
      "inputs": [],
      "name": "getSymbol",
      "outputs": [
        {
          "internalType": "string",
          "name": "",
          "type": "string"
        }
      ],
      "payable": false,
      "stateMutability": "view",
      "type": "function"
    },
    {
      "constant": true,
      "inputs": [
        {
          "internalType": "address",
          "name": "owner",
          "type": "address"
        },
        {
          "internalType": "address",
          "name": "operator",
          "type": "address"
        }
      ],
      "name": "isApprovedForAll",
      "outputs": [
        {
          "internalType": "bool",
          "name": "",
          "type": "bool"
        }
      ],
      "payable": false,
      "stateMutability": "view",
      "type": "function"
    },
    {
      "constant": true,
      "inputs": [
        {
          "internalType": "uint256",
          "name": "tokenId",
          "type": "uint256"
        }
      ],
      "name": "ownerOf",
      "outputs": [
        {
          "internalType": "address",
          "name": "",
          "type": "address"
        }
      ],
      "payable": false,
      "stateMutability": "view",
      "type": "function"
    },
    {
      "constant": false,
      "inputs": [
        {
          "internalType": "address",
          "name": "from",
          "type": "address"
        },
        {
          "internalType": "address",
          "name": "to",
          "type": "address"
        },
        {
          "internalType": "uint256",
          "name": "tokenId",
          "type": "uint256"
        }
      ],
      "name": "safeTransferFrom",
      "outputs": [],
      "payable": false,
      "stateMutability": "nonpayable",
      "type": "function"
    },
    {
      "constant": false,
      "inputs": [
        {
          "internalType": "address",
          "name": "from",
          "type": "address"
        },
        {
          "internalType": "address",
          "name": "to",
          "type": "address"
        },
        {
          "internalType": "uint256",
          "name": "tokenId",
          "type": "uint256"
        },
        {
          "internalType": "bytes",
          "name": "_data",
          "type": "bytes"
        }
      ],
      "name": "safeTransferFrom",
      "outputs": [],
      "payable": false,
      "stateMutability": "nonpayable",
      "type": "function"
    },
    {
      "constant": false,
      "inputs": [
        {
          "internalType": "address",
          "name": "to",
          "type": "address"
        },
        {
          "internalType": "bool",
          "name": "approved",
          "type": "bool"
        }
      ],
      "name": "setApprovalForAll",
      "outputs": [],
      "payable": false,
      "stateMutability": "nonpayable",
      "type": "function"
    },
    {
      "constant": false,
      "inputs": [
        {
          "internalType": "bool",
          "name": "status",
          "type": "bool"
        }
      ],
      "name": "setStatus",
      "outputs": [],
      "payable": false,
      "stateMutability": "nonpayable",
      "type": "function"
    },
    {
      "constant": true,
      "inputs": [
        {
          "internalType": "bytes4",
          "name": "interfaceId",
          "type": "bytes4"
        }
      ],
      "name": "supportsInterface",
      "outputs": [
        {
          "internalType": "bool",
          "name": "",
          "type": "bool"
        }
      ],
      "payable": false,
      "stateMutability": "view",
      "type": "function"
    },
    {
      "constant": true,
      "inputs": [
        {
          "internalType": "uint256",
          "name": "index",
          "type": "uint256"
        }
      ],
      "name": "tokenByIndex",
      "outputs": [
        {
          "internalType": "uint256",
          "name": "",
          "type": "uint256"
        }
      ],
      "payable": false,
      "stateMutability": "view",
      "type": "function"
    },
    {
      "constant": true,
      "inputs": [
        {
          "internalType": "address",
          "name": "owner",
          "type": "address"
        },
        {
          "internalType": "uint256",
          "name": "index",
          "type": "uint256"
        }
      ],
      "name": "tokenOfOwnerByIndex",
      "outputs": [
        {
          "internalType": "uint256",
          "name": "",
          "type": "uint256"
        }
      ],
      "payable": false,
      "stateMutability": "view",
      "type": "function"
    },
    {
      "constant": true,
      "inputs": [
        {
          "internalType": "uint256",
          "name": "tokenId",
          "type": "uint256"
        }
      ],
      "name": "tokenURI",
      "outputs": [
        {
          "internalType": "string",
          "name": "",
          "type": "string"
        }
      ],
      "payable": false,
      "stateMutability": "view",
      "type": "function"
    },
    {
      "constant": true,
      "inputs": [],
      "name": "totalSupply",
      "outputs": [
        {
          "internalType": "uint256",
          "name": "",
          "type": "uint256"
        }
      ],
      "payable": false,
      "stateMutability": "view",
      "type": "function"
    },
    {
      "constant": false,
      "inputs": [
        {
          "internalType": "address",
          "name": "from",
          "type": "address"
        },
        {
          "internalType": "address",
          "name": "to",
          "type": "address"
        },
        {
          "internalType": "uint256",
          "name": "tokenId",
          "type": "uint256"
        }
      ],
      "name": "transferFrom",
      "outputs": [],
      "payable": false,
      "stateMutability": "nonpayable",
      "type": "function"
    },
    {
      "constant": false,
      "inputs": [
        {
          "internalType": "address",
          "name": "newOwner",
          "type": "address"
        }
      ],
      "name": "transferOwnership",
      "outputs": [],
      "payable": false,
      "stateMutability": "nonpayable",
      "type": "function"
    },
    {
      "constant": false,
      "inputs": [
        {
          "internalType": "uint256[2]",
          "name": "a",
          "type": "uint256[2]"
        },
        {
          "internalType": "uint256[2][2]",
          "name": "b",
          "type": "uint256[2][2]"
        },
        {
          "internalType": "uint256[2]",
          "name": "c",
          "type": "uint256[2]"
        },
        {
          "internalType": "uint256[2]",
          "name": "input",
          "type": "uint256[2]"
        }
      ],
      "name": "verifyTx",
      "outputs": [
        {
          "internalType": "bool",
          "name": "r",
          "type": "bool"
        }
      ],
      "payable": false,
      "stateMutability": "nonpayable",
      "type": "function"
    },
    {
      "constant": false,
      "inputs": [
        {
          "internalType": "address",
          "name": "addr",
          "type": "address"
        },
        {
          "internalType": "uint256",
          "name": "tokenId",
          "type": "uint256"
        },
        {
          "internalType": "uint256[2]",
          "name": "a",
          "type": "uint256[2]"
        },
        {
          "internalType": "uint256[2][2]",
          "name": "b",
          "type": "uint256[2][2]"
        },
        {
          "internalType": "uint256[2]",
          "name": "c",
          "type": "uint256[2]"
        },
        {
          "internalType": "uint256[2]",
          "name": "input",
          "type": "uint256[2]"
        }
      ],
      "name": "addSolution",
      "outputs": [],
      "payable": false,
      "stateMutability": "nonpayable",
      "type": "function"
    },
    {
      "constant": false,
      "inputs": [
        {
          "internalType": "address",
          "name": "to",
          "type": "address"
        },
        {
          "internalType": "uint256",
          "name": "tokenId",
          "type": "uint256"
        }
      ],
      "name": "mint",
      "outputs": [
        {
          "internalType": "bool",
          "name": "",
          "type": "bool"
        }
      ],
      "payable": false,
      "stateMutability": "nonpayable",
      "type": "function"
    }
  ],
  "bytecode": "0x60806040526040518060400160405280601181526020017f5265616c2045737461746520546f6b656e0000000000000000000000000000008152506040518060400160405280600381526020017f52455400000000000000000000000000000000000000000000000000000000008152506040518060600160405280603f8152602001620047ce603f9139336000806101000a81548173ffffffffffffffffffffffffffffffffffffffff021916908373ffffffffffffffffffffffffffffffffffffffff1602179055507f8be0079c531659141344cd1fd0a4f28419497f9722a3daafe3b4186f6b6457e0600033604051808373ffffffffffffffffffffffffffffffffffffffff1673ffffffffffffffffffffffffffffffffffffffff1681526020018273ffffffffffffffffffffffffffffffffffffffff1673ffffffffffffffffffffffffffffffffffffffff1681526020019250505060405180910390a16001600060146101000a81548160ff021916908315150217905550620001956301ffc9a760e01b6200023160201b60201c565b620001ad6380ac58cd60e01b6200023160201b60201c565b620001c563780e9d6360e01b6200023160201b60201c565b82600f9080519060200190620001dd929190620002d1565b508160109080519060200190620001f6929190620002d1565b5080601190805190602001906200020f929190620002d1565b5062000228635b5e139f60e01b6200023160201b60201c565b50505062000380565b63ffffffff60e01b817bffffffffffffffffffffffffffffffffffffffffffffffffffffffff191614156200026557600080fd5b6001806000837bffffffffffffffffffffffffffffffffffffffffffffffffffffffff19167bffffffffffffffffffffffffffffffffffffffffffffffffffffffff1916815260200190815260200160002060006101000a81548160ff02191690831515021790555050565b828054600181600116156101000203166002900490600052602060002090601f016020900481019282601f106200031457805160ff191683800117855562000345565b8280016001018555821562000345579182015b828111156200034457825182559160200191906001019062000327565b5b50905062000354919062000358565b5090565b6200037d91905b80821115620003795760008160009055506001016200035f565b5090565b90565b61443e80620003906000396000f3fe608060405234801561001057600080fd5b50600436106101735760003560e01c806342842e0e116100de578063893d20e811610097578063bdc32be011610071578063bdc32be014610d5d578063c87b56dd14610de0578063e985e9c514610e87578063f2fde38b14610f0357610173565b8063893d20e814610bbe578063a22cb46514610c08578063b88d4fde14610c5857610173565b806342842e0e1461089f5780634f6ccce71461090d5780635c40f6f41461094f578063621e9ec01461097f5780636352211e14610af857806370a0823114610b6657610173565b806323b872dd1161013057806323b872dd146103bd57806327dc297e1461042b5780632f745c59146104f057806338bbfa50146105525780633eec14da146106ae57806340c10f191461083957610173565b806301ffc9a714610178578063081812fc146101dd578063095ea7b31461024b578063150704011461029957806317d7de7c1461031c57806318160ddd1461039f575b600080fd5b6101c36004803603602081101561018e57600080fd5b8101908080357bffffffffffffffffffffffffffffffffffffffffffffffffffffffff19169060200190929190505050610f47565b604051808215151515815260200191505060405180910390f35b610209600480360360208110156101f357600080fd5b8101908080359060200190929190505050610faf565b604051808273ffffffffffffffffffffffffffffffffffffffff1673ffffffffffffffffffffffffffffffffffffffff16815260200191505060405180910390f35b6102976004803603604081101561026157600080fd5b81019080803573ffffffffffffffffffffffffffffffffffffffff169060200190929190803590602001909291905050506110c1565b005b6102a16112f9565b6040518080602001828103825283818151815260200191508051906020019080838360005b838110156102e15780820151818401526020810190506102c6565b50505050905090810190601f16801561030e5780820380516001836020036101000a031916815260200191505b509250505060405180910390f35b61032461139b565b6040518080602001828103825283818151815260200191508051906020019080838360005b83811015610364578082015181840152602081019050610349565b50505050905090810190601f1680156103915780820380516001836020036101000a031916815260200191505b509250505060405180910390f35b6103a761143d565b6040518082815260200191505060405180910390f35b610429600480360360608110156103d357600080fd5b81019080803573ffffffffffffffffffffffffffffffffffffffff169060200190929190803573ffffffffffffffffffffffffffffffffffffffff1690602001909291908035906020019092919050505061144a565b005b6104ee6004803603604081101561044157600080fd5b81019080803590602001909291908035906020019064010000000081111561046857600080fd5b82018360208201111561047a57600080fd5b8035906020019184600183028401116401000000008311171561049c57600080fd5b91908080601f016020809104026020016040519081016040528093929190818152602001838380828437600081840152601f19601f82011690508083019250505050505050919291929050505061146d565b005b61053c6004803603604081101561050657600080fd5b81019080803573ffffffffffffffffffffffffffffffffffffffff169060200190929190803590602001909291905050506114b0565b6040518082815260200191505060405180910390f35b6106ac6004803603606081101561056857600080fd5b81019080803590602001909291908035906020019064010000000081111561058f57600080fd5b8201836020820111156105a157600080fd5b803590602001918460018302840111640100000000831117156105c357600080fd5b91908080601f016020809104026020016040519081016040528093929190818152602001838380828437600081840152601f19601f8201169050808301925050505050505091929192908035906020019064010000000081111561062657600080fd5b82018360208201111561063857600080fd5b8035906020019184600183028401116401000000008311171561065a57600080fd5b91908080601f016020809104026020016040519081016040528093929190818152602001838380828437600081840152601f19601f820116905080830192505050505050509192919290505050611523565b005b61083760048036036101808110156106c557600080fd5b81019080803573ffffffffffffffffffffffffffffffffffffffff1690602001909291908035906020019092919080604001906002806020026040519081016040528092919082600260200280828437600081840152601f19601f82011690508083019250505050505091929192908060800190600280602002604051908101604052809291906000905b828210156107a4578382604002016002806020026040519081016040528092919082600260200280828437600081840152601f19601f82011690508083019250505050505081526020019060010190610750565b50505050919291929080604001906002806020026040519081016040528092919082600260200280828437600081840152601f19601f820116905080830192505050505050919291929080604001906002806020026040519081016040528092919082600260200280828437600081840152601f19601f8201169050808301925050505050509192919290505050611528565b005b6108856004803603604081101561084f57600080fd5b81019080803573ffffffffffffffffffffffffffffffffffffffff169060200190929190803590602001909291905050506118a8565b604051808215151515815260200191505060405180910390f35b61090b600480360360608110156108b557600080fd5b81019080803573ffffffffffffffffffffffffffffffffffffffff169060200190929190803573ffffffffffffffffffffffffffffffffffffffff16906020019092919080359060200190929190505050611952565b005b6109396004803603602081101561092357600080fd5b8101908080359060200190929190505050611972565b6040518082815260200191505060405180910390f35b61097d6004803603602081101561096557600080fd5b810190808035151590602001909291905050506119a6565b005b610ade600480360361014081101561099657600080fd5b8101908080604001906002806020026040519081016040528092919082600260200280828437600081840152601f19601f82011690508083019250505050505091929192908060800190600280602002604051908101604052809291906000905b82821015610a4b578382604002016002806020026040519081016040528092919082600260200280828437600081840152601f19601f820116905080830192505050505050815260200190600101906109f7565b50505050919291929080604001906002806020026040519081016040528092919082600260200280828437600081840152601f19601f820116905080830192505050505050919291929080604001906002806020026040519081016040528092919082600260200280828437600081840152601f19601f8201169050808301925050505050509192919290505050611b65565b604051808215151515815260200191505060405180910390f35b610b2460048036036020811015610b0e57600080fd5b8101908080359060200190929190505050611dac565b604051808273ffffffffffffffffffffffffffffffffffffffff1673ffffffffffffffffffffffffffffffffffffffff16815260200191505060405180910390f35b610ba860048036036020811015610b7c57600080fd5b81019080803573ffffffffffffffffffffffffffffffffffffffff169060200190929190505050611de9565b6040518082815260200191505060405180910390f35b610bc6611e39565b604051808273ffffffffffffffffffffffffffffffffffffffff1673ffffffffffffffffffffffffffffffffffffffff16815260200191505060405180910390f35b610c5660048036036040811015610c1e57600080fd5b81019080803573ffffffffffffffffffffffffffffffffffffffff169060200190929190803515159060200190929190505050611e62565b005b610d5b60048036036080811015610c6e57600080fd5b81019080803573ffffffffffffffffffffffffffffffffffffffff169060200190929190803573ffffffffffffffffffffffffffffffffffffffff1690602001909291908035906020019092919080359060200190640100000000811115610cd557600080fd5b820183602082011115610ce757600080fd5b80359060200191846001830284011164010000000083111715610d0957600080fd5b91908080601f016020809104026020016040519081016040528093929190818152602001838380828437600081840152601f19601f820116905080830192505050505050509192919290505050611f9c565b005b610d65611fc2565b6040518080602001828103825283818151815260200191508051906020019080838360005b83811015610da5578082015181840152602081019050610d8a565b50505050905090810190601f168015610dd25780820380516001836020036101000a031916815260200191505b509250505060405180910390f35b610e0c60048036036020811015610df657600080fd5b8101908080359060200190929190505050612064565b6040518080602001828103825283818151815260200191508051906020019080838360005b83811015610e4c578082015181840152602081019050610e31565b50505050905090810190601f168015610e795780820380516001836020036101000a031916815260200191505b509250505060405180910390f35b610ee960048036036040811015610e9d57600080fd5b81019080803573ffffffffffffffffffffffffffffffffffffffff169060200190929190803573ffffffffffffffffffffffffffffffffffffffff16906020019092919050505061212b565b604051808215151515815260200191505060405180910390f35b610f4560048036036020811015610f1957600080fd5b81019080803573ffffffffffffffffffffffffffffffffffffffff1690602001909291905050506121bf565b005b600060016000837bffffffffffffffffffffffffffffffffffffffffffffffffffffffff19167bffffffffffffffffffffffffffffffffffffffffffffffffffffffff1916815260200190815260200160002060009054906101000a900460ff169050919050565b60008073ffffffffffffffffffffffffffffffffffffffff166003600084815260200190815260200160002060009054906101000a900473ffffffffffffffffffffffffffffffffffffffff1673ffffffffffffffffffffffffffffffffffffffff161415611086576040517f08c379a000000000000000000000000000000000000000000000000000000000815260040180806020018281038252601d8152602001807f546f6b656e20617070726f76616c20646f6573206e6f7420657869737400000081525060200191505060405180910390fd5b6003600083815260200190815260200160002060009054906101000a900473ffffffffffffffffffffffffffffffffffffffff169050919050565b6002600082815260200190815260200160002060009054906101000a900473ffffffffffffffffffffffffffffffffffffffff1673ffffffffffffffffffffffffffffffffffffffff168273ffffffffffffffffffffffffffffffffffffffff161415611196576040517f08c379a000000000000000000000000000000000000000000000000000000000815260040180806020018281038252601c8152602001807f526563697069656e7420616c7265616479206f776e7320746f6b656e0000000081525060200191505060405180910390fd5b6111a0823361212b565b806111d657508173ffffffffffffffffffffffffffffffffffffffff163373ffffffffffffffffffffffffffffffffffffffff16145b611248576040517f08c379a00000000000000000000000000000000000000000000000000000000081526004018080602001828103825260168152602001807f4e6f7420616c6c6f77656420746f20617070726f76650000000000000000000081525060200191505060405180910390fd5b816003600083815260200190815260200160002060006101000a81548173ffffffffffffffffffffffffffffffffffffffff021916908373ffffffffffffffffffffffffffffffffffffffff160217905550803373ffffffffffffffffffffffffffffffffffffffff168373ffffffffffffffffffffffffffffffffffffffff167f8c5be1e5ebec7d5bd14f71427d1e84f3dd0314c0f7b2291e5b200ac8c7c3b92560405160405180910390a45050565b606060108054600181600116156101000203166002900480601f0160208091040260200160405190810160405280929190818152602001828054600181600116156101000203166002900480156113915780601f1061136657610100808354040283529160200191611391565b820191906000526020600020905b81548152906001019060200180831161137457829003601f168201915b5050505050905090565b6060600f8054600181600116156101000203166002900480601f0160208091040260200160405190810160405280929190818152602001828054600181600116156101000203166002900480156114335780601f1061140857610100808354040283529160200191611433565b820191906000526020600020905b81548152906001019060200180831161141657829003601f168201915b5050505050905090565b6000600880549050905090565b611454338261240a565b61145d57600080fd5b61146883838361249f565b505050565b6114ac828260006040519080825280601f01601f1916602001820160405280156114a65781602001600182028038833980820191505090505b50611523565b5050565b60006114bb83611de9565b82106114c657600080fd5b600660008473ffffffffffffffffffffffffffffffffffffffff1673ffffffffffffffffffffffffffffffffffffffff168152602001908152602001600020828154811061151057fe5b9060005260206000200154905092915050565b505050565b6000848484846040516020018085600260200280838360005b8381101561155c578082015181840152602081019050611541565b505050509050018460026000925b818410156115b05782846020020151600260200280838360005b8381101561159f578082015181840152602081019050611584565b50505050905001926001019261156a565b9250505083600260200280838360005b838110156115db5780820151818401526020810190506115c0565b5050505090500182600260200280838360005b838110156116095780820151818401526020810190506115ee565b505050509050019450505050506040516020818303038152906040528051906020012090506014600082815260200190815260200160002060009054906101000a900460ff16156116a5576040517f08c379a00000000000000000000000000000000000000000000000000000000081526004018080602001828103825260238152602001806143e76023913960400191505060405180910390fd5b60006116b386868686611b65565b905080611728576040517f08c379a000000000000000000000000000000000000000000000000000000000815260040180806020018281038252601f8152602001807f5468652070726f76696465642070726f6f66206973206e6f742076616c69640081525060200191505060405180910390fd5b611730614131565b60405180608001604052808481526020018a73ffffffffffffffffffffffffffffffffffffffff16815260200189815260200160011515815250905080601360008a81526020019081526020016000206000820151816000015560208201518160010160006101000a81548173ffffffffffffffffffffffffffffffffffffffff021916908373ffffffffffffffffffffffffffffffffffffffff1602179055506040820151816002015560608201518160030160006101000a81548160ff02191690831515021790555090505060016014600085815260200190815260200160002060006101000a81548160ff0219169083151502179055507fd54d9ef5d3801dc9b4c79ac9cb0d5ed3b9c83d168bd86bb6e937ca7df70392da838a8a604051808481526020018373ffffffffffffffffffffffffffffffffffffffff1673ffffffffffffffffffffffffffffffffffffffff168152602001828152602001935050505060405180910390a1505050505050505050565b60006013600083815260200190815260200160002060030160009054906101000a900460ff16611940576040517f08c379a00000000000000000000000000000000000000000000000000000000081526004018080602001828103825260168152602001807f536f6c7574696f6e206973206e6f7420756e697175650000000000000000000081525060200191505060405180910390fd5b61194a83836124c3565b905092915050565b61196d83838360405180602001604052806000815250611f9c565b505050565b600061197c61143d565b821061198757600080fd5b6008828154811061199457fe5b90600052602060002001549050919050565b6000809054906101000a900473ffffffffffffffffffffffffffffffffffffffff1673ffffffffffffffffffffffffffffffffffffffff163373ffffffffffffffffffffffffffffffffffffffff1614611a68576040517f08c379a00000000000000000000000000000000000000000000000000000000081526004018080602001828103825260178152602001807f43616c6c6572206973206e6f7420746865206f776e657200000000000000000081525060200191505060405180910390fd5b80600060146101000a81548160ff021916908315150217905550600060149054906101000a900460ff16611afe577f62e78cea01bee320cd4e420270b5ea74000d11b0c9f74754ebdbfc544b05a25833604051808273ffffffffffffffffffffffffffffffffffffffff1673ffffffffffffffffffffffffffffffffffffffff16815260200191505060405180910390a1611b62565b7f5db9ee0a495bf2e6ff9c91a7834c1ba4fdd244a5e8aa4e537bd38aeae4b073aa33604051808273ffffffffffffffffffffffffffffffffffffffff1673ffffffffffffffffffffffffffffffffffffffff16815260200191505060405180910390a15b50565b6000611b6f614174565b604051806040016040528087600060028110611b8757fe5b6020020151815260200187600160028110611b9e57fe5b602002015181525081600001819052506040518060400160405280604051806040016040528088600060028110611bd157fe5b6020020151600060028110611be257fe5b6020020151815260200188600060028110611bf957fe5b6020020151600160028110611c0a57fe5b60200201518152508152602001604051806040016040528088600160028110611c2f57fe5b6020020151600060028110611c4057fe5b6020020151815260200188600160028110611c5757fe5b6020020151600160028110611c6857fe5b60200201518152508152508160200181905250604051806040016040528085600060028110611c9357fe5b6020020151815260200185600160028110611caa57fe5b6020020151815250816040018190525060606002604051908082528060200260200182016040528015611cec5781602001602082028038833980820191505090505b50905060008090505b6002811015611d3457848160028110611d0a57fe5b6020020151828281518110611d1b57fe5b6020026020010181815250508080600101915050611cf5565b506000611d4182846125a4565b1415611d9d577f3f3cfdb26fb5f9f1786ab4f1a1f9cd4c0b5e726cbdfc26e495261731aad44e396040518080602001828103825260228152602001806143c56022913960400191505060405180910390a1600192505050611da4565b6000925050505b949350505050565b60006002600083815260200190815260200160002060009054906101000a900473ffffffffffffffffffffffffffffffffffffffff169050919050565b6000611e32600460008473ffffffffffffffffffffffffffffffffffffffff1673ffffffffffffffffffffffffffffffffffffffff168152602001908152602001600020612716565b9050919050565b60008060009054906101000a900473ffffffffffffffffffffffffffffffffffffffff16905090565b3373ffffffffffffffffffffffffffffffffffffffff168273ffffffffffffffffffffffffffffffffffffffff161415611e9b57600080fd5b80600560003373ffffffffffffffffffffffffffffffffffffffff1673ffffffffffffffffffffffffffffffffffffffff16815260200190815260200160002060008473ffffffffffffffffffffffffffffffffffffffff1673ffffffffffffffffffffffffffffffffffffffff16815260200190815260200160002060006101000a81548160ff0219169083151502179055508173ffffffffffffffffffffffffffffffffffffffff163373ffffffffffffffffffffffffffffffffffffffff167f17307eab39ab6107e8899845ad3d59bd9653f200f220920489ca2b5937696c3183604051808215151515815260200191505060405180910390a35050565b611fa784848461144a565b611fb384848484612724565b611fbc57600080fd5b50505050565b606060118054600181600116156101000203166002900480601f01602080910402602001604051908101604052809291908181526020018280546001816001161561010002031660029004801561205a5780601f1061202f5761010080835404028352916020019161205a565b820191906000526020600020905b81548152906001019060200180831161203d57829003601f168201915b5050505050905090565b606061206f8261290d565b61207857600080fd5b601260008381526020019081526020016000208054600181600116156101000203166002900480601f01602080910402602001604051908101604052809291908181526020018280546001816001161561010002031660029004801561211f5780601f106120f45761010080835404028352916020019161211f565b820191906000526020600020905b81548152906001019060200180831161210257829003601f168201915b50505050509050919050565b6000600560008473ffffffffffffffffffffffffffffffffffffffff1673ffffffffffffffffffffffffffffffffffffffff16815260200190815260200160002060008373ffffffffffffffffffffffffffffffffffffffff1673ffffffffffffffffffffffffffffffffffffffff16815260200190815260200160002060009054906101000a900460ff16905092915050565b6000809054906101000a900473ffffffffffffffffffffffffffffffffffffffff1673ffffffffffffffffffffffffffffffffffffffff163373ffffffffffffffffffffffffffffffffffffffff1614612281576040517f08c379a00000000000000000000000000000000000000000000000000000000081526004018080602001828103825260178152602001807f43616c6c6572206973206e6f7420746865206f776e657200000000000000000081525060200191505060405180910390fd5b600073ffffffffffffffffffffffffffffffffffffffff168173ffffffffffffffffffffffffffffffffffffffff161415612324576040517f08c379a00000000000000000000000000000000000000000000000000000000081526004018080602001828103825260128152602001807f4e6f742061207265616c2061646472657373000000000000000000000000000081525060200191505060405180910390fd5b60008060009054906101000a900473ffffffffffffffffffffffffffffffffffffffff1690508173ffffffffffffffffffffffffffffffffffffffff166000809054906101000a905050507f8be0079c531659141344cd1fd0a4f28419497f9722a3daafe3b4186f6b6457e08183604051808373ffffffffffffffffffffffffffffffffffffffff1673ffffffffffffffffffffffffffffffffffffffff1681526020018273ffffffffffffffffffffffffffffffffffffffff1673ffffffffffffffffffffffffffffffffffffffff1681526020019250505060405180910390a15050565b60008061241683611dac565b90508073ffffffffffffffffffffffffffffffffffffffff168473ffffffffffffffffffffffffffffffffffffffff16148061248557508373ffffffffffffffffffffffffffffffffffffffff1661246d84610faf565b73ffffffffffffffffffffffffffffffffffffffff16145b806124965750612495818561212b565b5b91505092915050565b6124aa83838361297f565b6124b48382612c5b565b6124be8282612df9565b505050565b60008060009054906101000a900473ffffffffffffffffffffffffffffffffffffffff1673ffffffffffffffffffffffffffffffffffffffff163373ffffffffffffffffffffffffffffffffffffffff1614612587576040517f08c379a00000000000000000000000000000000000000000000000000000000081526004018080602001828103825260178152602001807f43616c6c6572206973206e6f7420746865206f776e657200000000000000000081525060200191505060405180910390fd5b6125918383612ec0565b61259a82612ee1565b6001905092915050565b6000807f30644e72e131a029b85045b68181585d2833e84879b9709143e1f593f000000190506125d26141a7565b6125da613032565b90508060800151516001865101146125f157600080fd5b6125f96141ee565b6040518060400160405280600081526020016000815250905060008090505b865181101561268f578387828151811061262e57fe5b60200260200101511061264057600080fd5b6126808261267b8560800151600185018151811061265a57fe5b60200260200101518a858151811061266e57fe5b602002602001015161347f565b613513565b91508080600101915050612618565b506126b28183608001516000815181106126a557fe5b6020026020010151613513565b90506126f8856000015186602001516126ca846135c6565b85604001516126dc8a604001516135c6565b87606001516126ee89600001516135c6565b8960200151613660565b6127085760019350505050612710565b600093505050505b92915050565b600081600001549050919050565b60006127458473ffffffffffffffffffffffffffffffffffffffff166137c4565b6127525760019050612905565b60008473ffffffffffffffffffffffffffffffffffffffff1663150b7a02338887876040518563ffffffff1660e01b8152600401808573ffffffffffffffffffffffffffffffffffffffff1673ffffffffffffffffffffffffffffffffffffffff1681526020018473ffffffffffffffffffffffffffffffffffffffff1673ffffffffffffffffffffffffffffffffffffffff16815260200183815260200180602001828103825283818151815260200191508051906020019080838360005b8381101561282d578082015181840152602081019050612812565b50505050905090810190601f16801561285a5780820380516001836020036101000a031916815260200191505b5095505050505050602060405180830381600087803b15801561287c57600080fd5b505af1158015612890573d6000803e3d6000fd5b505050506040513d60208110156128a657600080fd5b8101908080519060200190929190505050905063150b7a0260e01b7bffffffffffffffffffffffffffffffffffffffffffffffffffffffff1916817bffffffffffffffffffffffffffffffffffffffffffffffffffffffff1916149150505b949350505050565b6000806002600084815260200190815260200160002060009054906101000a900473ffffffffffffffffffffffffffffffffffffffff169050600073ffffffffffffffffffffffffffffffffffffffff168173ffffffffffffffffffffffffffffffffffffffff161415915050919050565b6002600082815260200190815260200160002060009054906101000a900473ffffffffffffffffffffffffffffffffffffffff1673ffffffffffffffffffffffffffffffffffffffff168373ffffffffffffffffffffffffffffffffffffffff1614612a53576040517f08c379a00000000000000000000000000000000000000000000000000000000081526004018080602001828103825260168152602001807f446f6573206e6f74206f776e2074686520746f6b656e0000000000000000000081525060200191505060405180910390fd5b612a728273ffffffffffffffffffffffffffffffffffffffff166137c4565b15612ac8576040517f08c379a00000000000000000000000000000000000000000000000000000000081526004018080602001828103825260238152602001806143a26023913960400191505060405180910390fd5b60006003600083815260200190815260200160002060006101000a81548173ffffffffffffffffffffffffffffffffffffffff021916908373ffffffffffffffffffffffffffffffffffffffff160217905550816002600083815260200190815260200160002060006101000a81548173ffffffffffffffffffffffffffffffffffffffff021916908373ffffffffffffffffffffffffffffffffffffffff160217905550612bb4600460008573ffffffffffffffffffffffffffffffffffffffff1673ffffffffffffffffffffffffffffffffffffffff16815260200190815260200160002061380f565b612bfb600460008473ffffffffffffffffffffffffffffffffffffffff1673ffffffffffffffffffffffffffffffffffffffff168152602001908152602001600020613832565b808273ffffffffffffffffffffffffffffffffffffffff168473ffffffffffffffffffffffffffffffffffffffff167fddf252ad1be2c89b69c2b068fc378daa952ba7f163c4a11628f55a4df523b3ef60405160405180910390a4505050565b6000612cb36001600660008673ffffffffffffffffffffffffffffffffffffffff1673ffffffffffffffffffffffffffffffffffffffff1681526020019081526020016000208054905061384890919063ffffffff16565b9050600060076000848152602001908152602001600020549050818114612da0576000600660008673ffffffffffffffffffffffffffffffffffffffff1673ffffffffffffffffffffffffffffffffffffffff1681526020019081526020016000208381548110612d2057fe5b9060005260206000200154905080600660008773ffffffffffffffffffffffffffffffffffffffff1673ffffffffffffffffffffffffffffffffffffffff1681526020019081526020016000208381548110612d7857fe5b9060005260206000200181905550816007600083815260200190815260200160002081905550505b600660008573ffffffffffffffffffffffffffffffffffffffff1673ffffffffffffffffffffffffffffffffffffffff168152602001908152602001600020805480919060019003612df29190614208565b5050505050565b600660008373ffffffffffffffffffffffffffffffffffffffff1673ffffffffffffffffffffffffffffffffffffffff168152602001908152602001600020805490506007600083815260200190815260200160002081905550600660008373ffffffffffffffffffffffffffffffffffffffff1673ffffffffffffffffffffffffffffffffffffffff1681526020019081526020016000208190806001815401808255809150509060018203906000526020600020016000909192909190915055505050565b612eca8282613892565b612ed48282612df9565b612edd8161399d565b5050565b612eea8161290d565b612f5c576040517f08c379a00000000000000000000000000000000000000000000000000000000081526004018080602001828103825260148152602001807f546f6b656e20646f6573206e6f7420657869737400000000000000000000000081525060200191505060405180910390fd5b61300860118054600181600116156101000203166002900480601f016020809104026020016040519081016040528092919081815260200182805460018160011615610100020316600290048015612ff55780601f10612fca57610100808354040283529160200191612ff5565b820191906000526020600020905b815481529060010190602001808311612fd857829003601f168201915b5050505050613003836139e9565b613b16565b60126000838152602001908152602001600020908051906020019061302e929190614234565b5050565b61303a6141a7565b60405180604001604052807f0dc16e2d11ae2d8791a9757061c8729f470de6160f54c79ca55ca46cc65a8a9a81526020017f0a37bcd09e2c9f7f4cfa67544aed2443b9adf967b5faaa27a0253ae0f54922c08152508160000181905250604051806040016040528060405180604001604052807e48ea9e767016bcd6b3ccd444a9d2020ed05a5c1cb4a06fcf356e76c6bd946981526020017f2ac52870ab4c7916655d5025005726947a905e51898fb84fecab0b45ccd56e17815250815260200160405180604001604052807f030b7ea5f2d524cfebb13323c692294fc42b5b93afac5b0acdaa03c7be616dc081526020017f1bf98cc6fc18c36274aebcd2e1374e312ebc490b3f5fcf461517057a246433148152508152508160200181905250604051806040016040528060405180604001604052807f081373c4e8b29ff4cf59dd750ef55ee343ca0ea7d0f3215f78cc25000748598f81526020017f2d5b4f065a9a1b91ae74aa0ae965a4f8b3254de2e3dc1906ad58a3850fde9f5f815250815260200160405180604001604052807f26cfe6333a5c711c659050c7675d67d65192d151f631328149eb3ea742f4990981526020017f2ce4d03296c2d54b9820b35992abf235ad21c54e3825dd55353c299dfc62ae828152508152508160400181905250604051806040016040528060405180604001604052807f2e26202b97bb9cb28e4e439dee6a884b56d326a5039e8cf1b57632a5a931055a81526020017f1381eefd63dedbb7dbedb19e32c68961bd5723f4f632eb782fe5806633d937d8815250815260200160405180604001604052807f28eb92b88305efae6b56165bc2051bbe442460bc643d6ac3a19f7aa653aec9d781526020017f1dd9de0cf2f74609bc76464d54f40d60881c619daf4a73ac09ce112d512df1bd8152508152508160600181905250600360405190808252806020026020018201604052801561332057816020015b61330d6142b4565b8152602001906001900390816133055790505b50816080018190525060405180604001604052807f24feb4ab62b7c16d9be81598841ff8fea3e9447a48cfb38faac1613f0ee6802b81526020017f1e40fde1c2d4d50ba4aa097029a3d443f74830baa278b4b20a9418a194d683dc815250816080015160008151811061338f57fe5b602002602001018190525060405180604001604052807f2acd21f0b0c449677c2bd8fb2208bb54c6c15895c031528b855c6829daf2dd3d81526020017f02d7a373df9ccefc57f3c11d9ffca6ddb21da226a5bc57b1afc32b412a544347815250816080015160018151811061340057fe5b602002602001018190525060405180604001604052807f076beb3783cbae26a31dac70ea7ebbf01946489d71c14ba82bc9288b01bc5cd381526020017f16d2bf5813f21bed5b67b91c46aa376e6a3ce11a14f10a718f15717a7faf0015815250816080015160028151811061347157fe5b602002602001018190525090565b6134876141ee565b61348f6142ce565b8360000151816000600381106134a157fe5b6020020181815250508360200151816001600381106134bc57fe5b60200201818152505082816002600381106134d357fe5b6020020181815250506000606083608084600060076107d05a03f1905080600081146134fe57613500565bfe5b508061350b57600080fd5b505092915050565b61351b6141ee565b6135236142f0565b83600001518160006004811061353557fe5b60200201818152505083602001518160016004811061355057fe5b60200201818152505082600001518160026004811061356b57fe5b60200201818152505082602001518160036004811061358657fe5b602002018181525050600060608360c084600060066107d05a03f1905080600081146135b1576135b3565bfe5b50806135be57600080fd5b505092915050565b6135ce6141ee565b60007f30644e72e131a029b85045b68181585d97816a916871ca8d3c208c16d87cfd4790506000836000015114801561360b575060008360200151145b1561362f57604051806040016040528060008152602001600081525091505061365b565b6040518060400160405280846000015181526020018285602001518161365157fe5b0683038152509150505b919050565b60006060600460405190808252806020026020018201604052801561369f57816020015b61368c6142b4565b8152602001906001900390816136845790505b509050606060046040519080825280602002602001820160405280156136df57816020015b6136cc614312565b8152602001906001900390816136c45790505b5090508a826000815181106136f057fe5b6020026020010181905250888260018151811061370957fe5b6020026020010181905250868260028151811061372257fe5b6020026020010181905250848260038151811061373b57fe5b6020026020010181905250898160008151811061375457fe5b6020026020010181905250878160018151811061376d57fe5b6020026020010181905250858160028151811061378657fe5b6020026020010181905250838160038151811061379f57fe5b60200260200101819052506137b48282613b5a565b9250505098975050505050505050565b60008060007fc5d2460186f7233c927e7db2dcc703c0e500b653ca82273b7bfad8045d85a47060001b9050833f915080821415801561380657506000801b8214155b92505050919050565b6138276001826000015461384890919063ffffffff16565b816000018190555050565b6001816000016000828254019250508190555050565b600061388a83836040518060400160405280601e81526020017f536166654d6174683a207375627472616374696f6e206f766572666c6f770000815250613daf565b905092915050565b61389b8161290d565b156138a557600080fd5b816002600083815260200190815260200160002060006101000a81548173ffffffffffffffffffffffffffffffffffffffff021916908373ffffffffffffffffffffffffffffffffffffffff16021790555061393e600460008473ffffffffffffffffffffffffffffffffffffffff1673ffffffffffffffffffffffffffffffffffffffff168152602001908152602001600020613832565b808273ffffffffffffffffffffffffffffffffffffffff163373ffffffffffffffffffffffffffffffffffffffff167fddf252ad1be2c89b69c2b068fc378daa952ba7f163c4a11628f55a4df523b3ef60405160405180910390a45050565b6008805490506009600083815260200190815260200160002081905550600881908060018154018082558091505090600182039060005260206000200160009091929091909150555050565b60606000821415613a31576040518060400160405280600181526020017f30000000000000000000000000000000000000000000000000000000000000008152509050613b11565b600082905060005b60008214613a5b578080600101915050600a8281613a5357fe5b049150613a39565b6060816040519080825280601f01601f191660200182016040528015613a905781602001600182028038833980820191505090505b50905060006001830390505b60008614613b0957600a8681613aae57fe5b0660300160f81b82828060019003935081518110613ac857fe5b60200101907effffffffffffffffffffffffffffffffffffffffffffffffffffffffffffff1916908160001a905350600a8681613b0157fe5b049550613a9c565b819450505050505b919050565b6060613b528383604051806020016040528060008152506040518060200160405280600081525060405180602001604052806000815250613e6f565b905092915050565b60008151835114613b6a57600080fd5b6000835190506000600682029050606081604051908082528060200260200182016040528015613ba95781602001602082028038833980820191505090505b50905060008090505b83811015613d4f57868181518110613bc657fe5b602002602001015160000151826000600684020181518110613be457fe5b602002602001018181525050868181518110613bfc57fe5b602002602001015160200151826001600684020181518110613c1a57fe5b602002602001018181525050858181518110613c3257fe5b602002602001015160000151600060028110613c4a57fe5b6020020151826002600684020181518110613c6157fe5b602002602001018181525050858181518110613c7957fe5b602002602001015160000151600160028110613c9157fe5b6020020151826003600684020181518110613ca857fe5b602002602001018181525050858181518110613cc057fe5b602002602001015160200151600060028110613cd857fe5b6020020151826004600684020181518110613cef57fe5b602002602001018181525050858181518110613d0757fe5b602002602001015160200151600160028110613d1f57fe5b6020020151826005600684020181518110613d3657fe5b6020026020010181815250508080600101915050613bb2565b50613d58614338565b60006020826020860260208601600060086107d05a03f190508060008114613d7f57613d81565bfe5b5080613d8c57600080fd5b600082600060018110613d9b57fe5b602002015114159550505050505092915050565b6000838311158290613e5c576040517f08c379a00000000000000000000000000000000000000000000000000000000081526004018080602001828103825283818151815260200191508051906020019080838360005b83811015613e21578082015181840152602081019050613e06565b50505050905090810190601f168015613e4e5780820380516001836020036101000a031916815260200191505b509250505060405180910390fd5b5060008385039050809150509392505050565b6060808690506060869050606086905060608690506060869050606081518351855187518951010101016040519080825280601f01601f191660200182016040528015613ecb5781602001600182028038833980820191505090505b509050606081905060008090506000809050600090505b8851811015613f5057888181518110613ef757fe5b602001015160f81c60f81b838380600101945081518110613f1457fe5b60200101907effffffffffffffffffffffffffffffffffffffffffffffffffffffffffffff1916908160001a9053508080600101915050613ee2565b600090505b8751811015613fc357878181518110613f6a57fe5b602001015160f81c60f81b838380600101945081518110613f8757fe5b60200101907effffffffffffffffffffffffffffffffffffffffffffffffffffffffffffff1916908160001a9053508080600101915050613f55565b600090505b865181101561403657868181518110613fdd57fe5b602001015160f81c60f81b838380600101945081518110613ffa57fe5b60200101907effffffffffffffffffffffffffffffffffffffffffffffffffffffffffffff1916908160001a9053508080600101915050613fc8565b600090505b85518110156140a95785818151811061405057fe5b602001015160f81c60f81b83838060010194508151811061406d57fe5b60200101907effffffffffffffffffffffffffffffffffffffffffffffffffffffffffffff1916908160001a905350808060010191505061403b565b600090505b845181101561411c578481815181106140c357fe5b602001015160f81c60f81b8383806001019450815181106140e057fe5b60200101907effffffffffffffffffffffffffffffffffffffffffffffffffffffffffffff1916908160001a90535080806001019150506140ae565b82995050505050505050505095945050505050565b604051806080016040528060008019168152602001600073ffffffffffffffffffffffffffffffffffffffff168152602001600081526020016000151581525090565b60405180606001604052806141876142b4565b8152602001614194614312565b81526020016141a16142b4565b81525090565b6040518060a001604052806141ba6142b4565b81526020016141c7614312565b81526020016141d4614312565b81526020016141e1614312565b8152602001606081525090565b604051806040016040528060008152602001600081525090565b81548183558181111561422f5781836000526020600020918201910161422e919061435a565b5b505050565b828054600181600116156101000203166002900490600052602060002090601f016020900481019282601f1061427557805160ff19168380011785556142a3565b828001600101855582156142a3579182015b828111156142a2578251825591602001919060010190614287565b5b5090506142b0919061435a565b5090565b604051806040016040528060008152602001600081525090565b6040518060600160405280600390602082028038833980820191505090505090565b6040518060800160405280600490602082028038833980820191505090505090565b604051806040016040528061432561437f565b815260200161433261437f565b81525090565b6040518060200160405280600190602082028038833980820191505090505090565b61437c91905b80821115614378576000816000905550600101614360565b5090565b90565b604051806040016040528060029060208202803883398082019150509050509056fe4e6f7420616c6c6f77656420746f207472616e7366657220746f20636f6e74726163745472616e73616374696f6e207375636365737366756c6c792076657269666965642e5468697320736f6c7574696f6e2068617320616c7265616479206265656e2075736564a265627a7a72315820be1cdd7b1949af58c6e52ce26bfae064f74fe3fb49feb4dff1adb36b4eb1c42864736f6c6343000510003268747470733a2f2f73332d75732d776573742d322e616d617a6f6e6177732e636f6d2f756461636974792d626c6f636b636861696e2f63617073746f6e652f",
  "source": "pragma solidity ^0.5.0;\r\n\r\n// define a contract call to the zokrates generated solidity contract <Verifier> or <renamedVerifier>\r\n\r\nimport \"./SquareVerifier.sol\";\r\nimport \"./ERC721Mintable.sol\";\r\n\r\n// define another contract named SolnSquareVerifier that inherits from your ERC721Mintable class\r\n\r\ncontract SolnSquareVerifier is Verifier, RealEstateToken {\r\n\r\n  // define a solutions struct that can hold an index & an address\r\n  struct Solution {\r\n    bytes32 index;\r\n    address addr;\r\n    uint256 tokenId;\r\n    bool exist;\r\n  }\r\n\r\n  // define an array of the above struct\r\n  mapping(uint256 => Solution) solutions;\r\n\r\n  // define a mapping to store unique solutions submitted\r\n  mapping(bytes32 => bool) uniqueSolutions;\r\n\r\n  // Create an event to emit when a solution is added\r\n  event SolutionAdded(bytes32 key, address addr, uint256 tokenId);\r\n\r\n\r\n  // Create a function to add the solutions to the array and emit the event\r\n  function addSolution(address addr, uint256 tokenId, uint[2] memory a, uint[2][2] memory b, uint[2] memory c, uint[2] memory input) public {\r\n    \r\n    bytes32 key = keccak256(abi.encodePacked(a, b, c, input));\r\n\r\n    require(!uniqueSolutions[key], \"This solution has already been used\");\r\n\r\n    bool isValidProof = verifyTx(a, b, c, input);\r\n    require(isValidProof, \"The provided proof is not valid\");\r\n\r\n    Solution memory solu = Solution(key, addr, tokenId, true);\r\n    solutions[tokenId] = solu;\r\n    uniqueSolutions[key] = true;\r\n\r\n    emit SolutionAdded(key, addr, tokenId);\r\n  }\r\n\r\n\r\n  // Create a function to mint new NFT only after the solution has been verified\r\n  //  - make sure the solution is unique (has not been used before)\r\n  //  - make sure you handle metadata as well as tokenSuplly\r\n  function mint(address to, uint256 tokenId) public returns(bool) {\r\n    require(solutions[tokenId].exist, \"Solution is not unique\");\r\n    return super.mint(to, tokenId);\r\n  }\r\n\r\n}\r\n\r\n\r\n\r\n\r\n  \r\n\r\n\r\n\r\n\r\n\r\n\r\n\r\n\r\n\r\n\r\n\r\n\r\n\r\n\r\n\r\n\r\n\r\n\r\n\r\n\r\n\r\n\r\n\r\n\r\n\r\n\r\n",
  "sourcePath": "C:\\Users\\caleb\\Desktop\\workspace\\Blockchain-Capstone\\eth-contracts\\contracts\\SolnSquareVerifier.sol",
  "compiler": {
    "name": "solc",
    "version": "0.5.16+commit.9c3226ce.Emscripten.clang"
  },
  "schemaVersion": "3.4.8",
  "updatedAt": "2022-08-01T19:05:38.404Z",
  "networkType": "ethereum",
  "devdoc": {
    "methods": {
      "isApprovedForAll(address,address)": {
        "details": "Tells whether an operator is approved by a given owner",
        "params": {
          "operator": "operator address which you want to query the approval of",
          "owner": "owner address which you want to query the approval of"
        },
        "return": "bool whether the given operator is approved by the given owner"
      },
      "setApprovalForAll(address,bool)": {
        "details": "Sets or unsets the approval of a given operator An operator is allowed to transfer all tokens of the sender on their behalf",
        "params": {
          "approved": "representing the status of the approval to be set",
          "to": "operator address to set the approval"
        }
      },
      "supportsInterface(bytes4)": {
        "details": "implement supportsInterface(bytes4) using a lookup table"
      },
      "tokenByIndex(uint256)": {
        "details": "Gets the token ID at a given index of all the tokens in this contract Reverts if the index is greater or equal to the total number of tokens",
        "params": {
          "index": "uint256 representing the index to be accessed of the tokens list"
        },
        "return": "uint256 token ID at the given index of the tokens list"
      },
      "tokenOfOwnerByIndex(address,uint256)": {
        "details": "Gets the token ID at a given index of the tokens list of the requested owner",
        "params": {
          "index": "uint256 representing the index to be accessed of the requested tokens list",
          "owner": "address owning the tokens list to be accessed"
        },
        "return": "uint256 token ID at the given index of the tokens list owned by the requested address"
      },
      "totalSupply()": {
        "details": "Gets the total amount of tokens stored by the contract",
        "return": "uint256 representing the total amount of tokens"
      }
    }
  },
  "userdoc": {
    "methods": {}
  }
}